:020000040800F2
:100000006009002001010008911C00082319000864
:10001000391C0008B9060008772400080000000019
:100020000000000000000000000000008321000824
:10003000550800080000000081210008C5210008C3
:100040001B0100081B0100081B0100081B01000820
:100050001B0100081B0100081B0100081B01000810
:100060001B0100081B0100081B0100081B01000800
:100070001B0100081B0100081B0100081B010008F0
:100080001B0100081B0100081B0100081B010008E0
:100090001B0100081B0100081B0100081B010008D0
:1000A0001B0100081B0100081B0100081B010008C0
:1000B0001B0100081B010008292200081B01000881
:1000C0001B0100081B0100081B0100081B010008A0
:1000D0001B0100081B0100081B0100081B01000890
:1000E0001B0100081B0100081B010008DFF80CD0F1
:1000F00000F0D0FA00480047C92D00086009002030
:100100000648804706480047FEE7FEE7FEE7FEE7B1
:10011000FEE7FEE7FEE7FEE7FEE7FEE72722000830
:10012000ED000008202A04DB203A21FA02F0002129
:10013000704721FA02F3D040C2F1200291400843F7
:1001400019467047D2B201E000F8012B491EFBD2DC
:1001500070470022F6E710B513460A4604461946D2
:10016000FFF7F0FF204610BD10B5002200E0521C42
:10017000835C8C5CA34201D1002BF8D1D8B2E1B2F0
:10018000401A10BD034611F8012B00F8012B002A7C
:10019000F9D1184670472DE9FE4F804681EA0300E9
:1001A000C00F0C46009021F0004123F00045B8EB51
:1001B0000200A94105D24046214690461C460B4606
:1001C000024623F00040104347D0270DC7F30A0032
:1001D000C3F30A510290401A019040286BDAC3F32E
:1001E000130040F4801B0098924620B10023D2EB0C
:1001F000030A63EB0B0B01985946C0F140025046CD
:1002000000F0B1F906460D4650465946019A00F0F5
:10021000B9F910EB08006141002487EA115284EA21
:10022000E7731A4340D0009A62B3019A012A4FEA59
:10023000075215DC001B61EB02014FF0004202EA9D
:100240000752CDE90042001C41F5801132462B4691
:1002500000F0B9F903B0BDE8F08F40462146F9E758
:10026000001B61EB0201001C41F5801300185B418B
:100270002018A2F5001747EB030140EAD570B61924
:100280006D4111E06D084FEA360645EAC0754FEA48
:100290000752001B61EB0201001C41F58011490867
:1002A0004FEA30000019514132462B4603B0BDE8F9
:1002B000F04F00F079B90098012240000023D0EB04
:1002C000020263EBE073009821464FEAE074B8EB5A
:1002D000000061EB0401E9E783F000435BE781F094
:1002E000004158E72DE9FE4F81EA030404F0004481
:1002F00021F0004100944FF0000B23F0004350EA3E
:1003000001045ED052EA03045BD0C3F30A54C1F384
:100310000A552C44A4F2F3340194A0FB0254C1F317
:10032000130141F48011C3F3130343F4801301FB61
:10033000024400FB034E840A970A44EA815447EAC8
:100340008357A4FB076802958D0A05FB07854FEAD2
:10035000932C04FB0C542705029D4FEA065847EAEC
:100360001637B5EB08056EEB070C870E920E47EAC1
:10037000811742EA8312A7FB0201B6EB0B0164EB83
:1003800000042B0D43EA0C335E1844EB1C50DA4694
:100390005146E7FB0201C5F313044FEA0B3343EA6E
:1003A00014534FEA0432019C43EA0603A4F10C04FF
:1003B0000294009CCDE900B400F005F903B0BDE85B
:1003C000F08F00200146F9E72DE9F04D81EA0304A2
:1003D00004F0004B21F0004514464FF0000A23F0D2
:1003E000004150EA050220D054EA01021DD0C5F3B5
:1003F0000A570246C5F31303C1F31300C1F30A56AB
:1004000040F4801543F48013A7EB0608101BD64672
:1004100008F2FD3873EB050002D308F1010801E092
:1004200092185B41B8F1000F03DA00200146BDE8E5
:10043000F08D00204FF48011064684460EE0171B15
:1004400073EB050705D3121B63EB050306434CEA68
:10045000010C49084FEA300092185B4150EA01074D
:10046000EDD152EA030012D082EA040083EA0501CA
:10047000084305D0101BAB4106D20122002306E041
:1004800000224FF0004302E06FF0010253101AEB1C
:1004900006004CEB085110EB0A0041EB0B01BDE8E4
:1004A000F04D00F081B8000030B5041E71F1000479
:1004B00004DB4FF00044404264EB0101141E73F171
:1004C000000405DB1C464FF00043524263EB04037B
:1004D000994208BF904230BD30B50B46014600201E
:1004E0002022012409E021FA02F59D4205D303FAF6
:1004F00002F5491B04FA02F52844151EA2F1010277
:10050000F1DC30BD2DE9F05F0546002092469B46A8
:1005100088460646814640241BE028464146474619
:100520002246FFF7FFFD53465A46C01A914110D3A9
:1005300011461846224600F016F82D1A67EB0108FE
:100540004F4622460120002100F00DF817EB00096C
:100550004E41201EA4F10104DFDC484631462A4604
:100560004346BDE8F09F202A04DB203A00FA02F15E
:10057000002070479140C2F1200320FA03F3194391
:1005800090407047202A06DBCB17203A41FA02F050
:1005900043EAE07306E041FA02F3D040C2F12002E0
:1005A000914008431946704710B5141E73F10004BA
:1005B00008DA401C41F1000192185B411A4301D155
:1005C00020F0010010BD2DE9F04D92469B4611B17F
:1005D000B1FA81F202E0B0FA80F220329046FFF7E1
:1005E000C2FF04460F4640EA0A0041EA0B015346A7
:1005F0005A46084313D0114653EA010019D0C8F1F6
:1006000040025046FFF78EFD05460E4650465946BD
:100610004246FFF7A8FF084305D0012004E020462A
:100620003946BDE8F08D0020054346EAE0762C43CC
:1006300037430A986305E40AA0EB08000022FD0A8C
:1006400044EA47540A3002D500200146E9E7010593
:1006500010196941DDE9084500196941BDE8F04D0F
:10066000A2E7C1F30A52C1F3130140F2FF3341F490
:1006700080119A4202DA00200146704740F233436B
:100680009A42A2F2334202DC5242FFF74BBDFFF71F
:100690006ABF0000064C074D06E0E06840F0010329
:1006A00094E8070098471034AC42F6D3FFF722FDD8
:1006B000D04A0008F04A0008FEE7000070B50024A8
:1006C00000F028F8124D04E0641CE4B2012002F0AE
:1006D00063FB0221284600F0EDF910B1642CF3D33E
:1006E0000FE0642C0DD2002404E0641CE4B201206D
:1006F00002F052FB0221284600F0DCF918B1642C0C
:1007000004D3012070BD642CEFD3FAE7002070BD44
:10071000000801401FB502200090002001906946AA
:10072000014800F0D7F81FBD000801401FB50220A6
:10073000009001200190032003906946014800F0D9
:10074000C9F81FBD0008014010B500F06BF8BDE806
:100750001040FFF7B3BF000070B50024134D04E054
:10076000641CE4B2012002F017FB0221284600F0CD
:10077000A1F908B1642CF3D3002404E0641CE4B2B2
:10078000012002F009FB0221284600F093F908B984
:10079000642CF3D3282002F0FFFA0221284600F04F
:1007A00089F9002800D0012070BD00000008014038
:1007B00070B5002004464006050EFFF7CDFF641C0F
:1007C0002843E4B2082CF6D370BD2DE9FC410D4658
:1007D000064600F027F8FFF771FF10B10120BDE8D1
:1007E000FC8100246F46FFF7E3FF3855641CE4B238
:1007F000052CF8D39DF800309DF801209DF80210DB
:100800009DF803009C180F183C449DF80470BC42EE
:1008100005D102EB03222A8000EB0120308000206A
:10082000DDE7000010B5FFF781FF094C002202212F
:10083000204600F044F9142000F03AF80122022189
:10084000204600F03CF9BDE810401E2002F0A4BA9A
:1008500000080140704700000C4910B50A680020EC
:10086000516A034609B201EBD1714910012909DC33
:10087000B1F1FF3F03DB012904D0491C01D15362D0
:10088000032010BD5362012010BD0000C0000020F5
:1008900010B50021044800F019FEBDE81040042105
:1008A000014800F013BE0000C000002072B6FEE751
:1008B00070B5044600F008F90546601C02D00448F3
:1008C0000078044400F000F9401BA042FAD370BD48
:1008D000000000202DE9F84FDFF8B8910024A9F1BD
:1008E000040B23460F2709F1040AABF1040EC9E0FB
:1008F0000125A5402A40AA427DD1674ED1F804C007
:10090000ACEB0608B44532D014DCBCF1030F3AD08E
:1009100009DCBCF1000F2AD0BCF1010F1CD0BCF1E6
:10092000020F31D11DE0BCF1110F17D0BCF1120F35
:100930002AD119E0B8F5881F19D006DCB8F5803F38
:1009400015D0B8F5801F1FD111E0B8F5001F0ED0EB
:10095000B8F5041F18D10AE0CB6815E0CB681B1D61
:1009600012E0CB6808330FE0CB680C330CE08B68E7
:100970002BB1012B4FF0080303D0456104E00423A1
:1009800002E0056100E00023FF2A01D8064601E0ED
:1009900000F104064FEA840501D9A5F12005D6F837
:1009A000008007FA05FC28EA0C0803FA05F548EA76
:1009B0000508C6F800804D68ED0062D5374DAE6978
:1009C00046F00106AE61AD6924F0030605F00105AD
:1009D0000095334D06EB050CDCF80850A607360FE2
:1009E00007FA06F825EA0805DFF8B880404503D184
:1009F0004FF0000817E044E0DFF8AC80404502D13A
:100A00004FF001080FE0DFF8A480404502D14FF01D
:100A1000020808E0DFF89880404502D14FF0030853
:100A200001E04FF0040808FA06F848EA0508CCF897
:100A300008804D68D9F80060ED024D4601D5164397
:100A400000E096432E604D68DAF80060AD0255462E
:100A500001D5164300E096432E604D68DBF8006038
:100A6000AD035D4601D5164300E096432E604D6808
:100A7000DEF80060ED03754601D5164300E09643AD
:100A80002E60641C0D682A46E5407FF431AFBDE856
:100A9000F88F00000804014000001110001002400F
:100AA0000000014000080140000C0140001001401E
:100AB000001401408068084000D0012070470AB14E
:100AC000016170470904FBE7014880687047000036
:100AD000000000200248816802781144816070475C
:100AE00000000020074810B5016841F010010160C6
:100AF000032000F075F80F2000F006F800F024F84D
:100B0000002010BD0020024070B50D4D04464FF48A
:100B10007A712878B1FBF0F00A490968B1FBF0F06E
:100B200000F0BCFA48B9102C07D200222146501E12
:100B300000F036F800206C6070BD012070BD000030
:100B4000000000200C0000200C4808B5816941F02D
:100B500001018161816901F001010091C16941F0E8
:100B60008051C161C06900F0805000900448416824
:100B700021F0E06141F00071416008BD00100240C9
:100B800000000140002809DB00F01F020121914014
:100B90004009800000F1E020C0F80011704700001B
:100BA000F0B40E4B1B680C46C3F30223C3F10705D8
:100BB000042D00D90425191D072901D2002300E0C6
:100BC000DB1E012606FA05F1491E214099409E4090
:100BD000761E16403143F0BC01F060BC0CED00E025
:100BE000064900F0070208684FF6FF03184040EA84
:100BF0000220034A10430860704700000CED00E03B
:100C00000000FA052DE9F0470F46050061D0434E7C
:100C1000306800F00700B84209D2306820F00700C1
:100C200038433060306800F00700B84251D128687E
:100C30003B4C810712D5400703D5606840F4E06063
:100C400060602878000703D5606840F460506060F9
:100C50006068A96820F0F000084360602878C00749
:100C600028D06868012810D02168022810D0890790
:100C700000292EDA616821F0030101436160FFF76A
:100C800023FF804641F288390DE021688903EFE7B0
:100C90008901EDE7FFF718FFA0EB0801494502D9EC
:100CA0000320BDE8F0876068696800F00C00B0EBD5
:100CB000810FEFD1306800F00700B8420BD93068DF
:100CC00020F0070038433060306800F00700B84279
:100CD00001D00120E5E72878400705D56068E9687C
:100CE00020F4E060084360602878000706D560685B
:100CF000296920F4605040EAC100606000F018F8F3
:100D00006168084AC1F30311515CC8400649086094
:100D100006480068FFF7F8FE0020C2E70020024006
:100D200000100240BE3B00080C0000200400002020
:100D30000E4A51680E4801F00C03042B11D0082B09
:100D40000FD10C48C1F38343C903C05C0AD5516875
:100D5000084AC1F34041921E515C054A5043B0FB22
:100D6000F1F070470449484370470000001002400A
:100D700000127A00AE3B000800093D002DE9F84F53
:100D8000040070D02078C04DC00749D06868C0F317
:100D90008100012807D06868C0F38100022809D1CA
:100DA0006868C00306D52868800339D560680028C4
:100DB000E7D035E06068B0F5803F0BD010B1B0F5FA
:100DC000A02F11D0286820F480302860286820F4F3
:100DD000802002E0286840F480302860606890B18C
:100DE000FFF772FE06460AE0286840F4802028607B
:100DF000F0E700BFFFF768FE801B642873D82868FF
:100E00008003F7D50CE0FFF75FFE064605E000BF64
:100E1000FFF75AFE801B6428F0D828688003F7D4B7
:100E200020789A4E80074FF001094FF0000839D51D
:100E3000686810F00C0F07D06868C0F381000228C2
:100E400009D16868C00306D42868800714D52069D2
:100E5000012808D110E02069B0B1C6F80090FFF772
:100E600033FE074605E00AE1FFF72EFEC01B02280D
:100E7000C4D828688007F7D52868616920F0F80091
:100E800040EAC10028600DE0C6F80080FFF71CFEB4
:100E9000074604E0FFF718FEC01B022823D8286885
:100EA0008007F7D4207800072CD57948A169D9B1FB
:100EB000C0F80090FFF708FE074604E0FFF704FEC5
:100EC000C01B02280FD8686A8007F7D571484FF415
:100ED000FA510068B0FBF1F0009000BF0098411E8D
:100EE0000091FAD20EE080E0C0F80080FFF7ECFD40
:100EF000074604E0FFF7E8FDC01B022875D8686AC2
:100F00008007F7D42078400760D5E8690027C00043
:100F100008D4E86940F08050E861E869012700F0F2
:100F2000805000905C480168C90513D4016883466D
:100F300041F480710160FFF7C7FD824606E000BF03
:100F4000FFF7C2FDA0EB0A0064284ED8DBF80000D2
:100F5000C005F5D5E06801280AD008B1052813D0EE
:100F6000286A20F001002862286A20F0040002E0CC
:100F7000286A40F001002862E06841F2883B98B19D
:100F8000FFF7A2FD82460BE0286A40F004002862C9
:100F9000EEE700BFFFF798FDA0EB0A0159455AD8CC
:100FA000286A8007F6D50CE0FFF78EFD824605E043
:100FB000FFF78AFDA0EB0A0159454CD8286A800743
:100FC000F6D41FB1E86920F08050E861E06988B389
:100FD0006968C1F38101022944D00228C6F8608003
:100FE00004D0FFF771FD044638E034E0FFF76CFDF4
:100FF000074604E0FFF768FDC01B02282BD82868CD
:101000008001F7D4206AB0F5803F05D16868A168F7
:1010100020F4003008436860D4E908010843696897
:1010200021F4741108436860C6F86090FFF74CFD26
:10103000044606E025E000BFFFF746FD001B02283E
:1010400009D828688001F7D51BE000BFFFF73CFDF9
:10105000001B022802D90320BDE8F88F2868800110
:10106000F4D40EE00128F7D06868226A00F48031D9
:10107000914204D1616A00F47010884201D00120CD
:10108000EAE70020E8E700000010024000004242CA
:10109000800442420C0000200070004010B5401E49
:1010A000B0F1807F01D3012010BD4FF0E0246061DA
:1010B0000F21601701F0F2F90020A06107202061E4
:1010C000002010BD7047704770B590F83C20012A91
:1010D00026D0012480F83C40022280F83D2003689D
:1010E0005A689D6822F070060A6832435A600D4BB8
:1010F00002689A4208D0B2F1804F05D00A4B9A425A
:1011000002D00A4B9A4204D1496825F08003194362
:10111000916080F83D40002180F83C10084670BD89
:10112000022070BD002C0140000400400008004077
:1011300010B5040003D094F83D0010B107E0012081
:1011400010BD002084F83C00204600F01FF802206B
:1011500084F83D00211D206801F06CF8012084F81E
:10116000460084F83E0084F83F0084F8400084F88C
:10117000410084F8420084F8430084F8440084F875
:10118000450084F83D00002010BD000008B5174A56
:1011900001681748914207D1816941F4006181617A
:1011A000806900F400601EE0B1F1804F14D0114A54
:1011B000914219D1C16941F00401C161C0690022A5
:1011C00000F00400009011461E20FFF7E9FCBDE886
:1011D00008401E20FFF7D6BCC16941F00101C16182
:1011E000C06900F00100009008BD0000002C014023
:1011F000001002400008004090F83D10012901D085
:1012000001207047022180F83D1000680B49884298
:1012100008D0B0F1804F05D00949884202D0094971
:10122000884204D1816801F00701062903D00168D2
:1012300041F001010160002070470000002C0140D6
:10124000000400400008004090F83D10012901D042
:1012500001207047022180F83D100168CA6842F001
:101260000102CA6000680B49884208D0B0F1804F83
:1012700005D00949884202D00849884204D18168D2
:1012800001F00701062903D0016841F00101016066
:1012900000207047002C014000040040000800407E
:1012A00001680A6A41F211131A4207D10A6A9B10B7
:1012B0001A4203D10A6822F001020A60012180F873
:1012C0003D10002070470168CA6822F00102CA6020
:1012D00001680A6A41F211131A4207D10A6A9B1087
:1012E0001A4203D10A6822F001020A60012180F843
:1012F0003D100020704770B5044690F83C00002572
:10130000012817D0012684F83C60022084F83D00B3
:101310002068826822F0770222F47F4282600868A7
:10132000502838D00DDC20284FD005DC90B3102891
:1013300011D14AE0022070BD302846D040280AD1A1
:101340003BE060282FD070280DD0B0F5805F03D02F
:10135000B0F5005F12D0012584F83D60002084F8CC
:101360003C00284670BDCB68D1E90121206800F01F
:10137000AAFF2068816841F0770109E0CB68D1E9D4
:101380000121206800F09FFF2068816841F48041BE
:101390008160E1E719E0CA684968206801F048F80F
:1013A0005021206806E0CA684968206801F051F8B9
:1013B0006021206800F091FFCEE7CA684968206884
:1013C00001F036F840212068F4E722680146104613
:1013D000F0E72DE9F0410D46040003D094F83D00FC
:1013E00018B108E00120BDE8F081002084F83C003D
:1013F000204600F041F8022084F83D002068816812
:1014000044F2070291438160211D206800F012FF21
:10141000226890689169166A2B68AF69034340F2AD
:101420000330814341EA0721A868EF6908434FF67A
:10143000FC418843E96840EA0720014328692F6A94
:10144000000140EA0730084369686D6926F022060A
:1014500046EA0515294393602268906154F8460BCB
:101460000162012004F81F09E0752076E0762077FC
:10147000A0750020B7E7000000B585B000210091FD
:1014800001910291039100680D49884216D10D48DF
:10149000C16941F00201C161C16901F00201049119
:1014A000816941F0040181618069694600F00400AE
:1014B0000490C02000900448FFF70CFA05B000BD6E
:1014C00000040040001002400008014070B590F890
:1014D0003E60044690F83F5090F8423090F8432028
:1014E000022021B104290ED0012E1BD114E0012EBF
:1014F00018D1012B16D184F83E0084F84200012255
:101500000021206820E0012D0CD1012A0AD184F8A5
:101510003F0084F8430014E0012D03D1012B01D1D9
:10152000012A01D0012070BD84F83E0084F83F00FC
:1015300084F8420084F8430001220021206800F072
:10154000B5FE01220421206800F0B0FE2068016889
:1015500041F001010160002070BD70472DE9F041AC
:1015600004460068C66805694FF00007A90713D54F
:10157000B10711D5F91E016101202077206880692B
:101580008007204602D0FFF7E8FF04E000F0A2F851
:10159000204600F034F92777680716D5700714D570
:1015A00021686FF0040008610220207720688069BC
:1015B00010F4407F204602D0FFF7CFFF04E000F098
:1015C00089F8204600F01BF92777280715D5300742
:1015D00013D521686FF00800086104202077206887
:1015E000C0698007204602D0FFF7B7FF04E000F093
:1015F00071F8204600F003F92777E80616D5F006C3
:1016000014D521686FF01000086108202077206849
:10161000C06910F4407F204602D0FFF79EFF04E02F
:1016200000F058F8204600F0EAF82777E80708D0DD
:10163000F00706D021686FF001000861204600F035
:101640002DF9280608D5300606D521686FF08000F0
:1016500008612046FFF736FD680608D5700606D5F6
:1016600021686FF040000861204600F059F9A80693
:101670000AD5B00608D521686FF020000861204621
:10168000BDE8F041FFF71FBDBDE8F08100B585B0B2
:10169000002100910191029103910068B0F1804F07
:1016A00011D10A48816941F004018161806969466C
:1016B00000F00400049004200090022001900390A8
:1016C0000348FFF707F905B000BD00000010024015
:1016D00000080140704770B5044690F83C000026B1
:1016E0000D4601280FD0012084F83C006AB1042A7D
:1016F0001DD0082A2FD00C2A3FD00126002084F8C4
:101700003C00304670BD022070BD206800F0EEFD48
:101710002068816941F0080181612068816921F0B8
:1017200004018161206881692A69114311E0206800
:1017300000F004FE2068816941F400618161206845
:10174000816921F480618161206881692A6941EAA7
:1017500002218161D2E7206800F01CFE2068C16987
:1017600041F00801C1612068C16921F00401C16133
:101770002068C1692A69114311E0206800F036FE33
:101780002068C16941F40061C1612068C16921F428
:101790008061C1612068C1692A6941EA0221C16191
:1017A000ACE710B5040003D094F83D0010B107E099
:1017B000012010BD002084F83C00204600F01EF8F7
:1017C000022084F83D00211D206800F033FD012037
:1017D00084F8460084F83E0084F83F0084F8400016
:1017E00084F8410084F8420084F8430084F84400FF
:1017F00084F8450084F83D00002010BD7047704714
:1018000010B50446022249B104290ED0082913D08C
:1018100094F84100012816D0012010BD94F83E0034
:101820000128F9D184F83E200FE094F83F00012808
:10183000F2D184F83F2008E094F840000128EBD171
:1018400084F8402001E084F841200122206800F063
:101850002DFD0F492068884203D1426C42F40042BA
:1018600042642068884208D0B0F1804F05D0094911
:10187000884202D00849884204D1816801F00701FA
:10188000062903D0016841F001010160002010BD6C
:10189000002C014000040040000800401A4910B527
:1018A000884230D11949012008701948017A00296D
:1018B00029D04168002926D04168491E416042680C
:1018C0004FF46161B2FBF1F2124B1A604268B2FB55
:1018D000F1F301FB13223C21B2FBF1F20E4B1A6033
:1018E0004268B2FBF1F301FB13210C4A116041681D
:1018F000002908D101720448FFF7E5FCBDE810405B
:10190000002000F0A1B910BD080100201300002044
:1019100050010020180000201C00002020000020A2
:101920007047FEE770B5214D4FF400560024314654
:101930002846FFF7BFF801280CD11420FEF7B8FFA6
:1019400031462846FFF7B6F80128F9D01420FEF7F3
:10195000AFFF01244FF4805631462846FFF7AAF81E
:1019600001280CD11420FEF7A3FF31462846FFF7CB
:10197000A1F80128F9D01420FEF79AFF02244FF4B1
:10198000804631462846FFF795F801280CD11420EF
:10199000FEF78EFF31462846FFF78CF80128F9D074
:1019A0001420FEF785FF0324204670BD000C014083
:1019B0002DE9F04385B00024294800940194029455
:1019C0000394816941F010018161816901F0100186
:1019D0000491816941F020018161816901F0200158
:1019E0000491816941F004018161816901F0040180
:1019F0000491816941F0080181618069DFF86480A8
:101A000000F008000490002232214046FFF757F80A
:101A1000DFF854904FF44077002239464846FFF7EC
:101A20004EF832200126CDE90006022569464046DF
:101A3000CDE90245FEF74EFF4FF4E0408DE831005E
:101A400069464846FEF746FFCDE9007669464846B6
:101A5000CDE90245FEF73EFF05B0BDE8F08300008A
:101A60000010024000080140000C014010B586B093
:101A70000024174800940194029403940494134999
:101A8000059401604721C0E901144FF6FF71C0E9D8
:101A9000031444618461FFF74BFB08B1FEF706FFB6
:101AA0004FF48050009069460948FFF724FC08B1C4
:101AB000FEF7FCFE049404A905480594FFF704FB17
:101AC000002801D0FEF7F2FE06B010BD002C014048
:101AD0003000002010B58EB00024079408940994BB
:101AE0000A940B941C2168460C94FEF732FB1D48A7
:101AF0004FF0804101604721C0E901146321C0E932
:101B000003148461FFF714FB08B1FEF7CFFE4FF416
:101B10008050079007A91348FFF7EDFB08B1FEF7C7
:101B2000C5FE1048FFF73DFE08B1FEF7BFFE0B945F
:101B30000BA90C480C94FFF7C7FA08B1FEF7B6FEE4
:101B40006020CDE900040294082269460548049407
:101B5000FFF7C1FD08B1FEF7A9FE0248FFF796FDA9
:101B60000EB010BD7800002010B58CB0242168465E
:101B7000FEF7EFFA00241548099413490A94C0E9C6
:101B800000144FF6FF71C0E9024104618461012035
:101B9000CDE90004CDE902040494CDE905400794A1
:101BA00069460A480894FFF714FC08B1FEF77EFE68
:101BB000099409A905480A94FFF786FA002801D07C
:101BC000FEF774FE0CB010BD00040040C000002001
:101BD00010B586B000241748009401940294039431
:101BE000049413490594016041F61F41C0E90114B2
:101BF00042F20F71C0E903148461FFF799FA08B14A
:101C0000FEF754FE4FF48050009069460948FFF7F4
:101C100072FB08B1FEF74AFE049404A90548059436
:101C2000FFF752FA002801D0FEF740FE06B010BDC3
:101C30000008004008010020FEE7000008210148DC
:101C4000FFF7DEBD7800002070B50F4D0F4E040089
:101C50000CD4012210212846FEF731FF002220215A
:101C60002846FEF72CFF3068C46370BD00221021A7
:101C70002846FEF724FF012220212846FEF71FFFF9
:101C800031686042C86370BD0008014078000020E0
:101C9000FEE7000010B50021074C0A46002004EBC7
:101CA000C1131A54401CC0B28028FAD3491CC9B2CF
:101CB0000829F3D310BD00005C010020F0B50B44EF
:101CC00024E0044685181DE07F2C19D8002917DB75
:101CD0003F2915DCCE1701EB56764FEAE60C0D4F87
:101CE00026F0070607EBCC172744A1EB060E97F862
:101CF00000C0012606FA0EF62CEA060C87F800C092
:101D0000641C24B2A542DFDC491C09B28B42D8DC3A
:101D1000F0BD00005C01002010B500204FF47A7285
:101D20000021491C9142FCD3401C9042F8D3012071
:101D300000F0DCF9BDE81040012000F0DFB970B51B
:101D400000240646802525FA04F0304000D001200A
:101D500000F0D4F9012000F0C9F9002000F0C6F924
:101D6000641CE4B2082CEED3012000F0BFF9BDE8FA
:101D70007040002000F0BAB910B5012000F0BEF9A3
:101D8000012000F0B3F9002000F0B8F9BDE81040E0
:101D9000002000F0ABB910B5002000F0AFF9012031
:101DA00000F0A4F9BDE81040012000F0A7B910B57B
:101DB000FFF7B2FFAE2000F0A9F9D52000F0A6F998
:101DC000802000F0A3F9A82000F0A0F93F2000F047
:101DD0009DF9D32000F09AF9002000F097F94020F7
:101DE00000F094F9A12000F091F9C82000F08EF9DC
:101DF000DA2000F08BF9122000F088F9812000F041
:101E000085F9CF2000F082F9D92000F07FF9F12088
:101E100000F07CF9DB2000F079F9302000F076F951
:101E2000A42000F073F9A62000F070F98D2000F0D6
:101E30006DF9142000F06AF9AF2000F067F9FFF7A0
:101E400029FFBDE8104000F03DB90FB470B5C0B037
:101E500014460D46064648AA6846479900F00CFB12
:101E600023466A462946304600F0BEF840B070BCB2
:101E70005DF814FBF0B50B4423E0044685181CE024
:101E80007F2C18D8002916DB3F2914DCCE1701EB74
:101E9000567C4FEAEC070C4E2CF0070C06EBC716ED
:101EA0002644A1EB0C0E37784FF0010C0CFA0EFC17
:101EB00087EA0C073770641C24B2A542E0DC491C99
:101EC00009B28B42D9DCF0BD5C01002010B50C4694
:101ED00040F0B00000F01AF9102040EA141000F0B1
:101EE00015F904F00F00BDE8104000F00FB9000034
:101EF00008B5082B0DD0062B0AD10A4B02EB420283
:101F000003EB4202C03A00920823062200F00EF8CA
:101F100008BD054B03EB0212A2F5007210230092DC
:101F20000822F3E7BE410008CE3B00082DE9F04F40
:101F30001F4616460D4682460024FFF7BFFE7F1E51
:101F4000F81707EB50700121DFF898B001EBE007BC
:101F500043E000203DE000BF0AEB00037F2B36D8B2
:101F6000E91705EB5171CA1021F00701691A002D1C
:101F700003DA521E083112B209B202EB0409B9F1B8
:101F8000070F0ED8099A04FB06F802440BEBC91E92
:101F900018F802201EF803C08A404CEA020C0EF822
:101FA00003C009F10102072A11D80BEBC91202EB99
:101FB0000308099A04FB06FC024498F880301CF8D8
:101FC0000220C1F10801CA40134388F88030401C48
:101FD000C0B2B042C0D3641CE4B2A742B9DCBDE8D1
:101FE000F08F00005C0100202DE9FF4F002583B039
:101FF0009B4690462C46AA46DFF8C09056E0100655
:102000008DF8042005F101050DD40398ADB22044EC
:102010008DF805A000B25B460499FFF769FF04EB59
:102020000B0084B242E0A8B218F80010002941D099
:10203000401C8DF8051085B28DF806A0002606E03C
:10204000384601A9FEF790F868B1761CB6B2C6EB27
:10205000C60000EB800101EB0900074618A1FEF75E
:1020600083F80028ECD1BBF1080F03D0BBF1060FB9
:102070001CD111E0C6EBC60000EB800101EB0900AA
:10208000C01C009003981023204400B21A46049903
:10209000FFF74CFF103408E003980623204400B2F9
:1020A0003F220499FFF724FFA41DA4B218F80520CD
:1020B000002AA4D107B0BDE8F08F0000F843000863
:1020C0000000000070B5084D002400212046FFF7F5
:1020D000FDFE05EBC410802100F029F8641CE4B279
:1020E000082CF2D370BD00005C01002002464FF4C2
:1020F00080710148FEF7E3BC000C014002464FF43A
:1021000000710148FEF7DBBC000C014010B504462D
:10211000FFF732FE7820FFF712FE0020FFF70FFED8
:102120002046FFF70CFEBDE81040FFF734BE70B547
:102130000D460646FFF720FE7820FFF700FE402000
:10214000FFF7FDFD002404E0305DFFF7F8FD641C9F
:10215000E4B2AC42F8D3BDE87040FFF71CBE00000B
:1021600010B50020FFF770FD034900200872BDE89C
:1021700010400248FFF7A7B85001002008010020D6
:10218000704770470C484FF4616281685143C268E0
:102190000069C2EB021201EB8201014407480160B1
:1021A0000168416001210172054900200968486207
:1021B0000348FFF749B8000010000020500100203C
:1021C00008010020FEF786BC30B58FB02821684694
:1021D000FDF7BFFF14210AA8FDF7BBFF012108048A
:1021E000CDE900100024029402250491CDE90750A6
:1021F0004FF4E01009906846FEF7C0FD08B172B6D2
:10220000FEE70F20CDE90A054FF48060CDE90C40D0
:1022100002210AA80E94FEF7F5FC002801D072B640
:10222000FEE70FB030BD70470148FFF797B90000D7
:1022300008010020F0B50268194B1A4C1A4D4FF0F6
:102240008047984205D0B84203D0A04201D0A842AE
:1022500003D122F070064A683243984205D0B84252
:1022600003D0A04201D0A84203D122F44074CA682E
:1022700022434C6922F08002224302608A68C262D3
:102280000A688262984201D10969016301214161B2
:102290000169C90703D0016921F001010161F0BDA5
:1022A000002C0140000400400008004010B501F07F
:1022B0001F030121046A99408C430462016A9A4019
:1022C0001143016210BD10B5846842EA032224F470
:1022D0007F440A432243826010BD826822F070026C
:1022E0000A4342F0070181607047000030B5036A7D
:1022F000026A22F0010202624268846924F07305D6
:102300000C682C4323F002058B682B430A4DA8422E
:102310000BD123F00805CB6822F440722B434D69A2
:1023200023F0040315438A692A43426084614968A3
:102330004163036230BD0000002C014030B5026AE9
:10234000036A23F010030362436884690D6824F470
:10235000E64444EA05248D6822F0200242EA051290
:102360000B4DA8420ED1CD6822F0800242EA051240
:102370004D6923F4406343EA85038D6922F04002EE
:1023800043EA85034360846149688163026230BD2A
:10239000002C014030B5036A026A22F480720262A6
:1023A0004268C46923F4007324F073050C682C435D
:1023B0008D6843EA05230C4DA8420ED1CD6823F465
:1023C000006343EA05234D6922F4405242EA0512B4
:1023D0008D6923F4806342EA05124260C461496852
:1023E000C163036230BD0000002C014030B5046AB7
:1023F000026A22F4805202624268C3690D6823F4C3
:10240000E64343EA05238D6824F4005444EA053486
:10241000064DA84204D14D6922F4804242EA851259
:102420004260C36149680164046230BD002C014010
:1024300010B5036A046A24F001040462846924F07C
:10244000F00444EA021423F00A020A43846102629F
:1024500010BD10B5036A046A24F010040462846994
:1024600023F0A00324F4704444EA023243EA011149
:102470008261016210BDFEE737B514460846064B7F
:102480006A46214600F0ECF804466946002000F058
:102490007EFC20463EBD00008F2D00080907090E76
:1024A000002804DB00F1E02080F80014704700F001
:1024B0000F0000F1E02080F8141D704702E008C80A
:1024C000121F08C1002AFAD170477047002001E0AE
:1024D00001C1121F002AFBD1704700002DE9FF5FE8
:1024E00082B00021DDE90430020DDDF840B0034385
:1024F00018D044F61050A2F2FF324243151411983E
:1025000001281FD0A5EB0B00401C5FEA000A4FF02A
:1025100000064E4FDFF83891B046504615D5CAF147
:10252000000413E0119801244AA3012801D16FEAA5
:102530000B010298119AC0E90031C0E9024206B0CD
:10254000BDE8F09FCBF10000DFE704460021404AE0
:10255000491842EB0450CDE9001012E0E00707D023
:1025600032463B4640464946FDF7BCFE804689461A
:1025700032463B4610461946FDF7B4FE06460F4666
:102580006410002CEAD1DDE90401DDE90023BAF191
:10259000000F06DAFDF7A6FE42464B46FDF7A2FE07
:1025A00005E0FDF711FF42464B46FDF70DFF0446DF
:1025B0000E460022284BFDF777FF03D84FF0FF307F
:1025C000014607E00022254B20463146FDF7E3FD9A
:1025D000FEF747F8102409E0002C0ADB0A2200234A
:1025E000FDF790FF039B30321A55641E50EA01023A
:1025F000F2D1641C039AC4F111031444119A012A04
:1026000003D0012208430DD10AE0084304D0002082
:102610004FF0110B119072E7A3EB0B056D1E0DE04F
:102620005B4504DD4FF0000205F1010504E003DA2B
:102630004FF00002A5F10105002AECD00298119993
:10264000C0E90231C0E9004579E70000000014400C
:102650000000F03F300000000000F0430000E03FC9
:102660002DE9FF4F95B09B468946064600250FE2AF
:10267000252877D100242746F84A0121059400E057
:10268000044316F8013F203B01FA03F01042F7D152
:1026900030782A2811D06FF02F033078A0F1300263
:1026A000092A16D8059A44F0020402EB820203EBD1
:1026B00042021044761C0590EFE759F8042B05926E
:1026C000002A03DA504244F40054059044F0020416
:1026D000761C30782E2816D116F8010F44F0040429
:1026E0002A280DD06FF02F023078A0F13003092B8B
:1026F00009D807EB870302EB4303C718761CF3E7FF
:1027000059F8047B761C30786C280FD006DC4C28F6
:1027100017D068280DD06A2814D104E0742810D08E
:102720007A280FD10DE044F400140AE044F4801438
:1027300001E044F440147278824202D104F580141E
:10274000761C761C307866280BD013DC582877D09E
:1027500009DC002875D04528F6D04628F4D0472853
:102760001AD19DE118E0632835D0642879D0652816
:1027700012D195E1702873D008DC6728F1D0692860
:102780006FD06E280DD06F2806D1B5E073282CD0FD
:10279000752875D0782874D05A46179990476D1CC3
:1027A00075E1C4F30250022809D003280DD0D9F8EE
:1027B000001004280DD00D6009F1040967E1D9F873
:1027C0000010EA17C1E90052F6E7D9F800100D80B1
:1027D000F2E70D70F0E719F8041B8DF800100020E7
:1027E0008DF80100EA46012003E059F804AB4FF0F0
:1027F000FF3061074FF0000102D40DE008F1010144
:102800008846B9420FDA8045F8DB1AF8081000292B
:10281000F4D108E008F1010188468142FADB1AF898
:1028200008100029F6D105985B46A0EB0807214661
:102830003846179A00F094FA284400EB080507E0A0
:102840004DE029E10DE01AF8010B5A46179990471F
:10285000B8F10108F7D25B4621463846179A13E1D2
:1028600042E00A220092C4F302524FF0000A022A08
:1028700008D059F804CB032A4FEAEC710AD00DE0D6
:1028800029E02AE009F1070121F00702F2E802C17C
:10289000914609E00FFA8CFC4FEAEC71042A03D14F
:1028A0004FFA8CFC4FEAEC71002907DA0A46002146
:1028B000DCF1000C61EB02012D2202E0220504D5BF
:1028C0002B228DF80420012203E0E20701D0202210
:1028D000F7E7904659E00A2102E010220DE01021AE
:1028E0004FF0000A00910BE010224FF0000A44F074
:1028F00004040827009203E008224FF0000A009227
:10290000C4F30252022A05D059F804CB0021032A4D
:1029100008D009E009F1070121F00702F2E802C13D
:10292000914605E01FFA8CFC042A01D10CF0FF0C43
:102930004FF00008220728D5702806D0009B83F0AE
:10294000100353EA0A0305D00EE040228DF804205C
:10295000012208E05CEA010206D030228DF8042052
:102960008DF8050002229046009B83F0080353EA8D
:102970000A030AD15CEA010201D1620705D53022BF
:102980008DF804204FF001087F1E582804D034A091
:1029900003900EA802900DE036A0F9E7534660467A
:1029A000009AFDF7AFFD84460398825C0298401EB2
:1029B000029002705CEA0100F0D1029806A9081AA0
:1029C00000F1200A600702D524F4803400E00127DA
:1029D000574502DDA7EB0A0000E0002000EB0A01EA
:1029E000009005984144401A0590E00306D45B46E8
:1029F0002146179A059800F0B3F90544002706E030
:102A000001A85A46C05D179990476D1C7F1C474529
:102A1000F6DBE0030CD55B462146179A059800F0DB
:102A20009FF9054404E030205A46179990476D1CE1
:102A30000099481E00900029F5DC08E002980299F0
:102A40005A460078491C0291179990476D1CBAF1BB
:102A50000001AAF1010AF1DC65E10000092801008A
:102A60003031323334353637383961626364656604
:102A700000000000303132333435363738394142C6
:102A8000434445460000000000F058F90544761C18
:102A9000307800287FF4ECAD19B02846BDE8F08FFF
:102AA000620700D4062709F1070222F0070CFCE8B0
:102AB0000223E14603F000485FEA080C02D00FF25F
:102AC000702C0DE05FEA045C02D50FF2682C07E081
:102AD0005FEAC47C02D00FF2602C01E0AFF2700C10
:102AE0004FF0FF3823F00043CDF850C065280CD0DC
:102AF00006DC452809D046281DD047283DD13DE0B9
:102B0000662818D067287ED138E00021112F01DB1C
:102B1000112000E0781CCDE9000106A90EA8FFF7FE
:102B2000DDFCDDE90F010E9A03910021009207F10F
:102B3000010A04914DE04FF000400097CDE90110EB
:102B400006A90EA8FFF7CAFCDDE90F0203920E9B4F
:102B500011990022DDF80CA00093049211B9791CA0
:102B600000EB010AB7EB0A0004D4C0F1FF3007F113
:102B7000010A0490AAEB0700019044E0012F00DA5B
:102B800001270021112F01DD112000E03846CDE999
:102B9000000106A90EA8FFF7A1FCDDE90F010E9ABE
:102BA0000391002104910092BA4621070CD40399A5
:102BB000514500DA8A46BAF1010F05DD009AAAF103
:102BC0000101515C302908D0B84202DA10F1040F3B
:102BD00006DA0121CDE9011015E0AAF10101E9E7CA
:102BE000002805DC049901440491AAEB000102E0ED
:102BF000411C514500DD8A460499401A401C019051
:102C00004FF000400290200704D40198504501DBAA
:102C1000CDF8048000208DF84F0002980DF14F0789
:102C2000B0F1004F25D02B200E9002984FF00208F3
:102C300000280CDA404202902D200E9007E00A2175
:102C40000298FDF749FC3031029007F8011DB8F1F8
:102C50000001A8F10108F2DC02980028EFD1791EEA
:102C60000E980870307800F0200040F0450007F81A
:102C7000020D12A8C01B00F107081498007800B1DB
:102C8000012000EB0A01019801EBE0710598414435
:102C9000401A401E0590E00306D45B462146179A71
:102CA000059800F05DF805441498007818B15A466C
:102CB000179990476D1CE00324D55B462146179A6F
:102CC000059800F04DF805441CE00498002807DB47
:102CD000DDE90301884203DD0098405C179901E0BB
:102CE000179930205A469047049805F10105401C79
:102CF00004900198401E019004D12E205A46179945
:102D000090476D1CBAF10001AAF1010ADDDC05E073
:102D100017F8010B5A46179990476D1CB8F100013E
:102D2000A8F10108F4DC5B462146179A0598ABE64A
:102D30002D0000002B000000200000002DE9F041D4
:102D4000044600251E461746880404D405E039468B
:102D50002020B0476D1C641EF9D52846BDE8F081DF
:102D60002DE9F041044600251E469046C80301D5D2
:102D7000302700E02027880404D505E04146384686
:102D8000B0476D1C641EF9D52846BDE8F0810A687D
:102D9000531C0B601070704770B54FF6FA75094EF2
:102DA000281A84B2306844623046FEF725FA30684B
:102DB00001E0416A8CB2AC42FBD3BDE870400148EF
:102DC000FEF76EBA78000020FDF78CFEFFF7FCF9E5
:102DD000FEF7EEFDFEF77EFEFEF7C6FEFEF7F8FEFE
:102DE000FEF744FEFEF7E3FFFDF752FDFEF726FF78
:102DF000FDF7AAFC00F002F8FCE700000026012421
:102E000037464B4DFEF78EFD40B22870012804D1A5
:102E1000641E14F0FF0400D10324032804D1641CB1
:102E2000E4B2042C00D10124022804D1FEF732FFC1
:102E3000FFF748F92646012E07D1AF602F613220F7
:102E4000EF60687000F0AEF80646022E0AD13848EE
:102E500038A11430FDF796F9AF701420687000F0B7
:102E6000E7F90646032E03D16F7000F0A1FA06467B
:102E7000012C24D0022C3ED0032CC3D100210823E6
:102E80002FA20846FFF7B0F8082334A21021002033
:102E9000FFF7AAF8082337A220210020FFF7A4F8A3
:102EA00008233AA230210020FFF79EF81023802249
:102EB00030210020FEF7DEFFFFF704F9A2E7002132
:102EC00008231FA20846FFF78FF8082323A210212A
:102ED0000020FFF789F8082326A220210020FFF711
:102EE00083F8082329A230210020FFF77DF8102362
:102EF00080221946DDE70021082311A20846FFF7CA
:102F000073F8082315A210210020FFF76DF808239D
:102F100018A220210020FFF767F808231BA2302108
:102F20000020FFF761F8102380222021C1E7000074
:102F300010000020D0FDC5A5BFC9B5F700000000F6
:102F40002020202020D6F7B2CBB5A520202020209D
:102F5000202020202020202020202000B6A8CAB138
:102F6000C4A3CABD202020202020202020202020F3
:102F700020202000CAD6B6AFC4A3CABD202020207E
:102F8000202020202020202020202000D7D4B6AFD1
:102F9000C4A3CABD202020202020202020202020C3
:102FA00020202000F8B500260124784DFEF7BAFC59
:102FB00040B22870012804D1641E14F0FF0400D12F
:102FC0000624032804D1641CE4B2072C00D1012498
:102FD000022804D1FEF75EFEFFF774F82646012EA4
:102FE00002D0022E02D004E00020F8BD00F074FBF5
:102FF0000646032E02D100F0F7FB0646042E02D14E
:1030000000F076FC0646052E02D100F0F5FC0646DF
:10301000062E02D100F052FD0646FEF73BFE072CBD
:10302000C4D2DFE804F00405244365879A00BDE7B5
:103030000021082356A20846FEF7D6FFA868009094
:1030400059A3082210210020FEF7FFFEE868009037
:103050005CA3082220210020FEF7F7FE28690090DB
:103060005FA3082230210020FEF7EFFE71E000216F
:10307000082347A20846FEF7B7FFA86800904AA3B6
:10308000082210210020FEF7E0FEE86800904DA322
:10309000082220210020FEF7D8FE2869009050A3C6
:1030A000082230210020FEF7D0FE65E00021082331
:1030B00037A20846FEF798FFA86800903AA30822B6
:1030C00010210020FEF7C1FEE86800903DA3082211
:1030D00020210020FEF7B9FE2869009040A30822B5
:1030E00030210020FEF7B1FE10234022202146E0CF
:1030F0000021082326A20846FEF776FFA868009064
:1031000029A3082210210020FEF79FFEE868009006
:103110002CA3082220210020FEF797FE28690090AA
:103120002FA3082230210020FEF78FFE102340221B
:10313000302124E095F90100002100902FA30822FE
:103140000846FEF782FE082333A210210020FEF776
:103150004BFF10234022002111E095F901000021CE
:10316000009026A308220846FEF76FFE08232AA235
:1031700010210020FEF738FF1023402219460020BE
:10318000FEF778FEFEF79EFF10E70000100000201B
:103190002020B7B5BBD820202020202020202020B0
:1031A0002020202020200000C9E8D6C3D0A1CAB129
:1031B0003A256420202020202020202020202020AC
:1031C00020200000C9E8D6C3B7D6D6D33A2564205C
:1031D000202020202020202020202020202000002F
:1031E000C9E8D6C3C3EB3A20202564202020202044
:1031F000202020202020202020200000C9E8D6C345
:10320000D7AACBD93A2564202020202020202020B6
:1032100020202020202000002020C8B7B6A8202091
:10322000202020202020202020202020000000001E
:10323000F8B5464F00260125A7F11404FDF70CFB55
:103240002070012804D1A17811B96178491C6170FE
:10325000032804D1A07810B96078401E6070FEF792
:1032600061FB40B22070012804D16D1E15F0FF05EE
:1032700000D10225032804D16D1CEDB2032D00D12D
:103280000125022804D1FEF705FDFEF71BFF2E469F
:10329000012E02D0022E05D016E00020FEF7D4FC4D
:1032A0000020F8BDA07810B1012806D00BE028A1BD
:1032B0002648FCF767FF012004E028A12348FCF71B
:1032C00061FF0020A0700026012D02D0022D38D110
:1032D00019E00021082324A20846FEF785FE28A352
:1032E0000822102100200097FEF7AFFD94F901009D
:1032F000009028A3082230210020FEF7A6FD10230D
:103300004022002118E00021082317A20846FEF7FA
:103310006BFE1BA30822102100200097FEF795FDED
:1033200094F9010000901BA3082230210020FEF731
:103330008CFD1023402219460020FEF79BFDFEF76E
:10334000C1FE94F90100FEF77FFC77E7240000201E
:10335000D0FDC5A5CBF8B6A800000000D0FDC5A5DE
:10336000BFC9B5F7000000002020B7B5BBD82020AA
:10337000202020202020202020202020202000008D
:1033800025732020202020202020202020202020E5
:1033900020000000C9E8D6C3D7AACBD93A256420BB
:1033A000202020202020202020202020202000005D
:1033B00070B5002501243B4EFEF7B4FA40B23070E0
:1033C000012804D1641E14F0FF0400D10324032853
:1033D00004D1641CE4B2042C00D10124022804D1DD
:1033E000FEF758FCFEF76EFE2546012D02D0022D99
:1033F00002D004E0002070BD00F0F4F80546032D73
:1034000002D100F075F80546012C1ED0022C32D0F6
:10341000032CD1D10021082323A20846FEF7E4FDA6
:10342000082327A210210020FEF7DEFD08232AA290
:1034300020210020FEF7D8FD10234022202100206B
:10344000FEF718FDFEF73EFEB6E70021082316A2A0
:103450000846FEF7C9FD082319A210210020FEF737
:10346000C3FD08231CA220210020FEF7BDFD102370
:1034700040220021E3E7002108230BA20846FEF7C3
:10348000B3FD08230EA210210020FEF7ADFD082396
:1034900011A220210020FEF7A7FD1023402219468B
:1034A000CDE70000100000202020B7B5BBD82020B9
:1034B000202020202020202020202020202000004C
:1034C000CEC2B6C8BFD8D6C62020202020202020BB
:1034D0002020202020202000CAAAB6C8BFD8D6C6E7
:1034E00020202020202020202020202020202000FC
:1034F0007CB527480025006845622548FDF7A4FEF5
:10350000244C00BFFEF70EFA40B22070022803D010
:10351000E07801280CD011E0FEF7BCFBFEF7D2FDED
:103520000020FEF791FB1A48FDF7CDFE00207CBD80
:103530001849E570891D881EFDF747F9E0880021CC
:1035400000126070082314A20846FEF74DFDE088C3
:1035500017A3C1B2000ACDE9000108221021002002
:10356000FEF773FC94F90100009018A308223021A3
:103570000020FEF76AFC0021102340220846FEF7D7
:1035800079FCFEF79FFD94F90100FEF75DFBB9E7BA
:1035900008010020100000202020B7B5BBD8202053
:1035A000202020202020202020202020202000005B
:1035B000CAAAB6C83A25642E2564202020202020DF
:1035C000202020202020202020000000D7AACBD9B6
:1035D0003A25642020202020202020202020202088
:1035E000202000007CB5274800250068456225485A
:1035F000FDF72AFE244C00BFFEF794F940B220707C
:10360000022803D0E07801280CD011E0FEF742FB3D
:10361000FEF758FD0020FEF717FB1A48FDF753FE92
:1036200000207CBD1849E570891D881EFDF7CDF886
:10363000A088002100126070082314A20846FEF73B
:10364000D3FCA08817A3C1B2000ACDE9000108226B
:1036500010210020FEF7F9FB94F90100009018A357
:10366000082230210020FEF7F0FB00211023402229
:103670000846FEF7FFFBFEF725FD94F90100FEF773
:10368000E3FAB9E708010020100000202020B7B5B8
:10369000BBD82020202020202020202020202020D7
:1036A00020200000CEC2B6C83A25642E2564202012
:1036B000202020202020202020202020200000006A
:1036C000D7AACBD93A2564202020202020202020F2
:1036D000202020202020000038B5274CFDF7BCF822
:1036E0002070032805D1A168491EA16001D51821C9
:1036F000A160012806D1A068401CA060192801DB48
:103700000020A060FEF70EF940B22070022824D0FD
:103710000021082319A20846FEF766FCA068009065
:103720001CA3082210210020FEF78FFBE068009008
:103730001FA3082220210020FEF787FB20690090AC
:1037400022A3082230210020FEF77FFBA0684FF063
:1037500010030A2807DA082206E0FEF79BFAFEF7B4
:10376000B1FC002038BD102210214820FEF782FB5A
:10377000FEF7A8FCB2E70000100000202020B7B53B
:10378000BBD82020202020202020202020202020E6
:1037900020200000C9E8D6C3D0A1CAB13A256420D0
:1037A0002020202020202020202020202020000059
:1037B000C9E8D6C3B7D6D6D33A2564202020202026
:1037C000202020202020202020200000C9E8D6C36F
:1037D000C3EB3A2020256420202020202020202018
:1037E000202020202020000038B5254CFDF734F89B
:1037F0002070032805D1E168491EE16001D53C2114
:10380000E160012806D1E068401CE0603D2801DB52
:103810000020E060FEF786F840B22070022824D035
:103820000021082317A20846FEF7DEFBA0680090DF
:103830001AA3082210210020FEF707FBE068009081
:103840001DA3082220210020FEF7FFFA2069009026
:1038500020A3082230210020FEF7F7FAE0684FF09D
:1038600010030A2803DA082202E0002038BD1022E3
:1038700020214820FEF7FEFAFEF724FCB6E7000000
:10388000100000202020B7B5BBD820202020202009
:10389000202020202020202020200000C9E8D6C39E
:1038A000D0A1CAB13A256420202020202020202049
:1038B0002020202020200000C9E8D6C3B7D6D6D3C8
:1038C0003A25642020202020202020202020202095
:1038D00020200000C9E8D6C3C3EB3A20202564208D
:1038E0002020202020202020202020202020000018
:1038F00038B5254CFCF7B0FF2070032805D12169AD
:10390000491E216101D53C212161012806D1206990
:10391000401C20613D2801DB00202061FEF702F8F9
:1039200040B22070022824D00021082317A20846A4
:10393000FEF75AFBA06800901AA30822102100206D
:10394000FEF783FAE06800901DA3082220210020E2
:10395000FEF77BFA2069009020A308223021002086
:10396000FEF773FA20694FF010030A2803DA0822E1
:1039700002E0002038BD102230214820FEF77AFAFC
:10398000FEF7A0FBB6E70000100000202020B7B52E
:10399000BBD82020202020202020202020202020D4
:1039A00020200000C9E8D6C3D0A1CAB13A256420BE
:1039B0002020202020202020202020202020000047
:1039C000C9E8D6C3B7D6D6D33A2564202020202014
:1039D000202020202020202020200000C9E8D6C35D
:1039E000C3EB3A2020256420202020202020202006
:1039F000202020202020000038B5224CFCF72CFF8E
:103A00002070032807D16178491E49B261700029EE
:103A100001DA00216170012807D16078401C40B2B2
:103A20006070652801DB64206070FDF77BFF40B2A9
:103A30002070022815D094F901000021009012A3F3
:103A400008220846FEF701FA082316A210210020DA
:103A5000FEF7CAFA94F901000A2804DA10230822B2
:103A600008E0002038BD64284FF0100301DA10226E
:103A700000E0182200214820FEF7FCF9FEF722FBA7
:103A8000BCE7000010000020C9E8D6C3D7AACBD9F4
:103A90003A256420202020202020202020202020C3
:103AA000202000002020C8B7B6A8202020202020F9
:103AB0002020202020202020000000003EB5254CA2
:103AC0002146A3680869C968002B03DC002801DCD3
:103AD000002909DDCAB2C1B2D8B2FEF753FB94F98E
:103AE0000100FEF7B1F801E0FEF73AFBFDF71AFF1F
:103AF00040B22070022828D00021082316A20846D0
:103B0000FEF772FA08231AA210210020FEF76CFAC1
:103B100004F1080019A307C88DE807000822202136
:103B20000020FEF792F994F90100009019A30822F1
:103B300030210020FEF789F9002110234022084699
:103B4000FEF798F9FEF7BEFAD0E7FEF709FB002072
:103B50003EBD0000100000202020B7B5BBD82020BB
:103B600020202020202020202020202000000000D5
:103B7000CAA3D3E0CAB1BCE43A00000025643A25E8
:103B8000643A25642020202020202020202020208E
:103B900020200000D7AACBD93A256420202020205D
:103BA00020202020202020202000000001020203ED
:103BB0000405060708090A0B0C0D0E0F1010000073
:103BC00000000000000001020304060708090000CD
:103BD00000000000000000000000000000000000E5
:103BE00000F8000000000000003330000000001664
:103BF0000E00160E0000000000000000000040C093
:103C00007840C0784000043F04043F040400007082
:103C100088FC08300000001820FF211E0000F0087A
:103C2000F000E018000000211C031E211E0000F01F
:103C30000888700000001E2123241927211000008D
:103C400000160E0000000000000000000000000050
:103C500000E01804020000000007182040000002E5
:103C60000418E00000000040201807000000404059
:103C700080F0804040000202010F010202000000BB
:103C800000F0000000000101011F0101010000001F
:103C900000000000000000B0700000000000000004
:103CA000000000000000000101010101010100000D
:103CB00000000000000000303000000000000000A4
:103CC000000080601804006018060100000000E099
:103CD00010080810E000000F102020100F00001046
:103CE00010F8000000000020203F2020000000709D
:103CF0000808088870000030282422213000003095
:103D00000888884830000018202020110E0000008C
:103D1000C02010F8000000070424243F240000F80D
:103D20000888880808000019212020110E0000E0F2
:103D3000108888180000000F112020110E00003894
:103D40000808C83808000000003F000000000070AC
:103D5000880808887000001C222121221C0000E035
:103D600010080810E0000000312222110F000000AE
:103D700000C0C00000000000003030000000000063
:103D800000C0C0000000000080B070000000000013
:103D9000804020100800000102040810200040406C
:103DA00040404040400004040404040404000008AF
:103DB0001020408000000020100804020100007064
:103DC00048080808F0000000003036010000C0304C
:103DD000C828E810E0000718272423140B0000006F
:103DE000C038E0000000203C23020227382008F8F9
:103DF000888888700000203F202020110E00C030ED
:103E0000080808083800071820202010080008F8C3
:103E100008080810E000203F202020100F0008F8BC
:103E20008888E8081000203F20202320180008F888
:103E30008888E8081000203F200003000000C03000
:103E400008080838000007182020221E020008F881
:103E500008000008F808203F210101213F20000848
:103E600008F8080800000020203F20200000000083
:103E70000808F8080800C08080807F00000008F86B
:103E800088C028180800203F20012638200008F8A4
:103E9000080000000000203F20202020300008F80B
:103EA000F800F8F80800203F003F003F200008F825
:103EB00030C00008F808203F200007183F00E0103D
:103EC00008080810E0000F10202020100F0008F84C
:103ED00008080808F000203F210101010000E0105F
:103EE00008080810E0000F18242438504F0008F884
:103EF000888888887000203F2000030C30200070E4
:103F00008808080838000038202121221C001808E1
:103F100008F8080818000000203F2000000008F8FA
:103F200008000008F808001F202020201F00087843
:103F3000880000C83808000007380E010000F808A3
:103F400000F80008F800033C0700073C03000818CD
:103F500068808068180820302C03032C3020083833
:103F6000C800C83808000000203F200000001008EA
:103F70000808C83808002038262120201800000032
:103F800000FE020202000000007F40404000000CE2
:103F900030C000000000000000010638C000000230
:103FA0000202FE000000004040407F0000000020B0
:103FB00010080408102000000000000000000000AD
:103FC00000000000000080808080808080800002EF
:103FD00004080000000000000000000000000000D5
:103FE0008080808000000019242222223F2008F8CF
:103FF000008080000000003F112020110E00000012
:10400000008080800000000E1120202011000000A0
:1040100000808088F800000E112020103F20000052
:10402000808080800000001F222222221300008056
:1040300080F0888888180020203F202000000000A1
:10404000808080808000006B94949493600008F8D6
:10405000008080800000203F210000203F20008061
:104060009898000000000020203F20200000000061
:1040700000809898000000C08080807F000008F8D1
:10408000000080808000203F24022D3020000008A6
:1040900008F8000000000020203F20200000808061
:1040A000808080808000203F20003F20003F0080F3
:1040B00080008080000000203F2100203F20000081
:1040C000808080800000001F202020201F00808032
:1040D00000808000000080FFA12020110E00000061
:1040E000008080808000000E112020A0FF80808052
:1040F00080008080800020203F21200001000000FF
:1041000080808080800000332424242419000080D3
:1041100080E0808000000000001F202000008080E0
:10412000000000808000001F202020103F208080A1
:1041300080000080808000010E3008060100808031
:104140000080008080800F300C030C300F00008056
:104150008000808080000020312E0E312000808081
:1041600080000080808080818E70180601000080B1
:104170008080808080000021302C222130000000CF
:104180000000807C020200000000003F4040000070
:104190000000FF00000000000000FF00000000021F
:1041A000027C800000000040403F000000000080D2
:1041B000404080000080000000000001010000007D
:1041C000000000000000002F0000000007000700B2
:1041D00000147F147F1400242A7F2A12002313085E
:1041E00064620036495522500000000700000000BC
:1041F0001C224100000041221C000014083E08144B
:104200000008083E0808000000A060000008080838
:104210000808000060600000002010080402003E52
:104220005149453E0000427F4000004261514946ED
:10423000002141454B31001814127F1000274545DD
:104240004539003C4A4949300001710905030036EF
:104250004949493600064949291E00003636000002
:104260000000563600000008142241000014141407
:104270001414000041221408000201510906003EF6
:104280004955592E007C1211127C007F494949364C
:10429000003E41414122007F4141221C007F4949AB
:1042A0004941007F09090901003E4149497A007FDF
:1042B0000808087F0000417F4100002040413F0185
:1042C000007F08142241007F40404040007F020CE4
:1042D000027F007F0408107F003E4141413E007F85
:1042E00009090906003E4151215E007F091929464E
:1042F0000046494949310001017F0101003F40402A
:10430000403F001F2040201F003F4038403F0063D7
:1043100014081463000708700807006151494543F9
:1043200000007F41410000020408102000004141CC
:104330007F000004020102040040404040400000B1
:1043400001020400002054545478007F484444384B
:1043500000384444442000384444487F00385454D2
:10436000541800087E0901020018A4A4A47C007F50
:10437000080404780000447D4000004080847D00F3
:10438000007F102844000000417F4000007C04189A
:104390000478007C0804047800384444443800FC65
:1043A000242424180018242418FC007C0804040881
:1043B00000485454542000043F444020003C4040F6
:1043C000207C001C2040201C003C4030403C00442D
:1043D00028102844001CA0A0A07C004464544C4435
:1043E0000000087F41000000007F00000000417FC6
:1043F0000800000804081008A3AC0000000000003A
:10440000000000000000000000000000005838001C
:104410000000000000000000000000A1A300000058
:10442000000000000000000000000000000000008C
:104430001824241800000000000000000000C4E35D
:1044400000008060F8074020180F08C808082818E6
:1044500000010000FF00100C0340807F00010618DF
:1044600000BAC3001010F01F10F000808282E292A8
:104470008A868000402215081661000040807F0077
:1044800000000000CAC000202020FE2020FF2020C5
:1044900020FF20202020000000007F4040474444AF
:1044A00044474040400000BDE700000000FE9292FB
:1044B00092FE929292FE0000000008080484621EA0
:1044C000010001FE020404080800D6F700000808F5
:1044D00008080809FA0808080808080000404041D0
:1044E000414141417F4141414141404000B2CB0007
:1044F000040444C44F4444C424242FB424040400BA
:1045000040442424150C04FE040C152424444000CB
:10451000B5A5000000F8494A4C48F8484C4A49F80B
:1045200000000010101312121212FF1212121213B6
:10453000101000B7B500404042CC0000FC24A42479
:104540002222A36200000040201F20584750484507
:10455000424548504000BBD8000000FE0202F21263
:104560001212F20202FE00000000007F2020272429
:1045700024242720207F000000CBF80020102CE707
:10458000242400E22C20BF2028E600000101017F46
:104590002111804F20100F10204F8000B6A800106E
:1045A0000C4444444445C64444444444140C0080F0
:1045B00040201E2040407F4444444444404000A3E7
:1045C000A800000000000000000000E01804020045
:1045D000000000000000000000000007182040005C
:1045E0000000A3A9000000020418E0000000000081
:1045F000000000000000004020180700000000003C
:104600000000000000A3BA0000000000000000004D
:10461000000000000000000000003636000000002E
:104620000000000000000000CEC2001060028C00FC
:1046300000FE9292929292FE00000004047E0140DD
:104640007E42427E427E42427E4000B6C80000006A
:10465000FC242424FC252624FC24242404004030AB
:104660008F80844C55252525554C80808000CAAA12
:10467000001060028C00FE929292929292FE0000D4
:104680000004047E014448507F40407F504844402D
:1046900000B6A800100C4444444445C64444444475
:1046A00044140C008040201E2040407F4444444479
:1046B00044404000CAB10000FC848484FC00101017
:1046C000101010FF101000003F1010103F000001EC
:1046D0000640807F000000CAD60000002424242465
:1046E00024FC2222222322000000020202020242B3
:1046F000827F0202020202020200B6AF004044C4FE
:10470000444444401010FF101010F00000103C13FF
:104710001014B840300E014080403F0000D7D40054
:10472000000000F8888C8A89888888F800000000DA
:10473000000000FF44444444444444FF000000009F
:10474000C4A3001010D0FF9014E4AFA4A4A4AFE45D
:10475000040000040300FF00894B2A1A0E1A2A4B9A
:10476000888000CABD00101090909090901010FFAB
:10477000101011161000002060203F1010100003D0
:104780000C102040F800BFD800101010FF902098A7
:104790004828090E2848A818000242817F0040409E
:1047A0004242427E4242424000D6C60040504E48FD
:1047B00048FF48484840F80000FF000000003E0263
:1047C00002FF12221E000F40807F0000D7AA00C8FF
:1047D000B88FE88888404848E85F48484840000863
:1047E0001808FF040400020B1222D20A060000CBB4
:1047F000D900404042CC0004F49494FF9494F40413
:1048000000000040201F20484442415F414244488C
:104810004000D0FD001010F196909010282724E45D
:104820002424E4040080601F40807F80601F207F7C
:104830004444444000C5A50020102CE724240082F5
:1048400082FE8282FE0000000101017F21114040B2
:104850007F4040407F404000BFC900000202F2128A
:104860001212F2020202FE020202000000000F0415
:1048700004040F0040807F00000000B5F7004042B4
:10488000CC0000FE829292FE929282FE0000000016
:104890003F10887F001E1212125E807F0000C9E860
:1048A00000404042CC0040A09E8282829EA02020F8
:1048B000000000003F908840432C10284641808033
:1048C00000D6C300001715D55557557D555755D5FA
:1048D000151700004040407F555555555555557F9B
:1048E00040404000D0A100000000E0000000FF00B8
:1048F00000002040800000080403000040807F008A
:1049000000000000010E00B7D6008040209088868D
:10491000808080838C102040800000804020180719
:10492000004080403F0000000000D6D30020102C43
:10493000E7242400F01010FF1010F0000001010126
:104940007F211100070202FF0202070000C3EB00F3
:104950002424A4FE232200C03800FF0008106000B9
:10496000080601FF01068180404027100C0300006B
:10497000C8B7000484E45C44C42010E82724E4346D
:104980002CE00002017F10103F80601F09093F49A1
:10499000897F00CAA300484AFA0AFE09F949A8001B
:1049A00000F00000FF0022110B04FF040912230095
:1049B000000F40807F00D3E00080804020504844BA
:1049C000C344485020408080000040221A024282A6
:1049D0007F0202020A12600000BCE40000F8010637
:1049E00000F0121212F2020202FE000000FF0000AC
:1049F000001F1111111F0040807F0000D6DC000055
:104A000000FE82929292FE92929282FE00000080BC
:104A1000601F00001E1212121E40807F000000CE98
:104A2000A70000FE0212525252FE5252521202FED1
:104A3000000000FF40414141417F4149514F40FF4B
:104A40000000D3D00004040484E43C27242424245C
:104A5000E40404040004020100FF0909090949896A
:104A60007F00000000CEDE000040424242C27E4293
:104A7000C242424240400000804020100C0300002F
:104A80003F40404040700000C8CB000000000000E4
:104A900000C03FC000000000000000804020100C5B
:104AA00003000000030C1020408000000000FF0104
:104AB00001013109090909897101010101FFFF8023
:104AC00080808080809681808080808080FF000050
:104AD000F04A00080000002030000000BC2400085C
:104AE000204B00083000002030090000CC240008D2
:104AF00001000000100000000000000000127A0019
:104B00000032000000000000000000000000000073
:104B100000000000D0FDC5A5BFC9B5F7000000002A
:04000005080000ED02
:00000001FF
